{
  "transactions": [
    {
      "hash": "0x4b60c5475d7ed8696ddb0b75b98ccf1814d079b6f442ea58b3d399d16ea3d7b2",
      "transactionType": "CALL",
      "contractName": null,
      "contractAddress": "0xa6b71e26c5e0845f74c812102ca7114b6a896ab2",
      "function": "createProxyWithNonce(address,bytes,uint256)",
      "arguments": [
        "0xd9Db270c1B5E3Bd161E8c8503c55cEABeE709552",
        "0xb63e800d0000000000000000000000000000000000000000000000000000000000000100000000000000000000000000000000000000000000000000000000000000000100000000000000000000000000000000000000000000000000000000000000000000000000000000000000000000000000000000000000000000000000000140000000000000000000000000f48f2b2d2a534e402487b3ee7c18c33aec0fe5e40000000000000000000000000000000000000000000000000000000000000000000000000000000000000000000000000000000000000000000000000000000000000000000000000000000000000000000000000000000000000000000000000000000000000000000000000000000000000000000000000000000000000001000000000000000000000000f39fd6e51aad88f6f4ce6ab8827279cfffb922660000000000000000000000000000000000000000000000000000000000000000",
        "1775244959"
      ],
      "transaction": {
        "from": "0xf39fd6e51aad88f6f4ce6ab8827279cfffb92266",
        "to": "0xa6b71e26c5e0845f74c812102ca7114b6a896ab2",
        "gas": "0x5735c",
        "value": "0x0",
        "input": "0x1688f0b9000000000000000000000000d9db270c1b5e3bd161e8c8503c55ceabee70955200000000000000000000000000000000000000000000000000000000000000600000000000000000000000000000000000000000000000000000000069d0169f0000000000000000000000000000000000000000000000000000000000000164b63e800d0000000000000000000000000000000000000000000000000000000000000100000000000000000000000000000000000000000000000000000000000000000100000000000000000000000000000000000000000000000000000000000000000000000000000000000000000000000000000000000000000000000000000140000000000000000000000000f48f2b2d2a534e402487b3ee7c18c33aec0fe5e40000000000000000000000000000000000000000000000000000000000000000000000000000000000000000000000000000000000000000000000000000000000000000000000000000000000000000000000000000000000000000000000000000000000000000000000000000000000000000000000000000000000000001000000000000000000000000f39fd6e51aad88f6f4ce6ab8827279cfffb92266000000000000000000000000000000000000000000000000000000000000000000000000000000000000000000000000000000000000000000000000",
        "nonce": "0x1806",
        "chainId": "0x1"
      },
      "additionalContracts": [
        {
          "transactionType": "CREATE2",
          "address": "0x0ab580a23b09f2b7c6c40e83747dbebdfa271472",
          "initCode": "0x608060405234801561001057600080fd5b506040516101e63803806101e68339818101604052602081101561003357600080fd5b8101908080519060200190929190505050600073ffffffffffffffffffffffffffffffffffffffff168173ffffffffffffffffffffffffffffffffffffffff1614156100ca576040517f08c379a00000000000000000000000000000000000000000000000000000000081526004018080602001828103825260228152602001806101c46022913960400191505060405180910390fd5b806000806101000a81548173ffffffffffffffffffffffffffffffffffffffff021916908373ffffffffffffffffffffffffffffffffffffffff1602179055505060ab806101196000396000f3fe608060405273ffffffffffffffffffffffffffffffffffffffff600054167fa619486e0000000000000000000000000000000000000000000000000000000060003514156050578060005260206000f35b3660008037600080366000845af43d6000803e60008114156070573d6000fd5b3d6000f3fea2646970667358221220d1429297349653a4918076d650332de1a1068c5f3e07c5c82360c277770b955264736f6c63430007060033496e76616c69642073696e676c65746f6e20616464726573732070726f7669646564000000000000000000000000d9db270c1b5e3bd161e8c8503c55ceabee709552"
        }
      ],
      "isFixedGasLimit": false
    },
    {
      "hash": "0xd8899b2a908d04453f45ad21c006564a69a7c3e0298798dc7dff669ca02ef5d4",
      "transactionType": "CREATE",
      "contractName": "AIGuard",
      "contractAddress": "0x5ba7cfeb518fca00f61f61e3ff842d44141e4a84",
      "function": null,
      "arguments": [
        "0x0Ab580a23B09F2B7C6C40e83747DBEbDfa271472",
        "0x83df4B8EbA7c0B3B740019b8c9a77ffF77D508cF",
        "0x3C44CdDdB6a900fa2b585dd299e03d12FA4293BC"
      ],
      "transaction": {
        "from": "0xf39fd6e51aad88f6f4ce6ab8827279cfffb92266",
        "gas": "0xabcca",
        "value": "0x0",
        "input": "0x60c0346100b757601f61094338819003918201601f19168301916001600160401b038311848410176100bc578084926060946040528339810103126100b757610047816100d2565b906100606040610059602084016100d2565b92016100d2565b60a092909252608052600080546001600160a01b0319166001600160a01b0390921691909117905560405161085c90816100e782396080518181816101c30152610506015260a051818181610549015261065c0152f35b600080fd5b634e487b7160e01b600052604160045260246000fd5b51906001600160a01b03821682036100b75756fe60806040908082526004918236101561001757600080fd5b600091823560e01c90816301ffc9a71461057857508063186f03541461053557806343f855c3146104f257806348aefc32146104ad5780636683bc6a1461048357806375f0bb52146103c95780638406c079146103a2578063932713681461035d578063bf7c2131146103135763d8bf63e01461009357600080fd5b3461030f57608036600319011261030f578235906024938435906044359081151580920361030b576064359067ffffffffffffffff8083116103075736602384011215610307578282013581811161030357368a82860101116103035788546001600160a01b039190821633036102f357875194602095868101908b8252898b8201528860f81b6060820152604181526080810191818310878411176102e157828c528151902060a08201907f19457468657265756d205369676e6564204d6573736167653a0a333200000000825260bc830152603c835260e0820192808410888511176102cf57838d52519020936040190161029b5750506080869260448d938f8d519384526064820135861a878501528101358d8401520135606082015282805260015afa156102915788517f0000000000000000000000000000000000000000000000000000000000000000821691160361028257855191606083019182118383101761027057507f18cb53246101ee7893950c776a2df4cd63fd9484f27fa4467b122d8378a5cafb969798508552828152600182820189815286830190868252898b52828552878b20935115159060ff61ff0086549251151560081b1692169061ffff191617178355519101558351928352820152a280f35b634e487b7160e01b8952604190528888fd5b508451634c0f958960e01b8152fd5b86513d8a823e3d90fd5b906d0c4c2c840e6d2ce40d8cadccee8d60931b6101246064938a62461bcd60e51b855260e4820152600e6101048201520152fd5b634e487b7160e01b8f52604189528f8ffd5b634e487b7160e01b8e52604188528e8efd5b875163c64891a560e01b81528490fd5b8880fd5b8780fd5b8580fd5b5080fd5b50823461035957602036600319011261035957606092829135815260016020522090600182549201549060ff8151938181161515855260081c1615156020840152820152f35b8280fd5b508290346103595736600319011261030f576024358015150361030f57357fe7c2dd28dc23dfabe01bd47d8eb95f59a139e8cbecbd6f9c29f21c1921df62118280a280f35b503461030f578160031936011261030f57905490516001600160a01b039091168152602090f35b82843461030f5761016036600319011261030f578035906001600160a01b03808316830361047f5767ffffffffffffffff9060443582811161030b5761041290369085016105cc565b6064359160ff8316830361047b5760e4359381851685036103075761010435958287168703610303576101243591821161030357610452913691016105cc565b50610144359081160361030b576104789460c4359260a43592608435926024359061064a565b80f35b8680fd5b8380fd5b50823461035957602036600319011261035957816020936001923581528285522001549051908152f35b5082346103595760203660031901126103595760209282913581526001845220549060ff821691826104e3575b50519015158152f35b60081c60ff16159150836104da565b503461030f578160031936011261030f57517f00000000000000000000000000000000000000000000000000000000000000006001600160a01b03168152602090f35b503461030f578160031936011261030f57517f00000000000000000000000000000000000000000000000000000000000000006001600160a01b03168152602090f35b83908534610359576020366003190112610359573563ffffffff60e01b8116809103610359576020925063736bd41d60e11b81149081156105bb575b5015158152f35b6301ffc9a760e01b149050836105b4565b81601f8201121561062f5780359067ffffffffffffffff928383116106345760405193601f8401601f19908116603f0116850190811185821017610634576040528284526020838301011161062f57816000926020809301838601378301015290565b600080fd5b634e487b7160e01b600052604160045260246000fd5b939692979490959160018060a01b03807f0000000000000000000000000000000000000000000000000000000000000000169086161480610762575b6107575760208151910120966040519860208a01986bffffffffffffffffffffffff199889809860601b168b5260348c015260548b015260ff60f81b9060f81b1660748a01526075890152609588015260b587015260601b1660d585015260601b1660e983015260dd825261010082019180831067ffffffffffffffff841117610634578260405251902060005260016020526040600020549060ff8260081c16610748575060ff161561073657565b60405163c19f17a960e01b8152600490fd5b636f47ab5f60e01b8152600490fd5b505050505050505050565b5061076c81610771565b610686565b80516004811061081f57156107cb5760208101516001600160f81b031990811660e160f81b14919082610800575b826107e1575b826107af57505090565b9080925051600310156107cb57602360d960f81b920151161490565b634e487b7160e01b600052603260045260246000fd5b91508051600210156107cb5760228101518216609d60f81b14916107a5565b91508051600110156107cb5760218101518216604d60f91b149161079f565b505060009056fea2646970667358221220e441ab55cb3edc0de81178d3f0a1c6b8f6471014a31a095015421959333b83c664736f6c634300081300330000000000000000000000000ab580a23b09f2b7c6c40e83747dbebdfa27147200000000000000000000000083df4b8eba7c0b3b740019b8c9a77fff77d508cf0000000000000000000000003c44cdddb6a900fa2b585dd299e03d12fa4293bc",
        "nonce": "0x1807",
        "chainId": "0x1"
      },
      "additionalContracts": [],
      "isFixedGasLimit": false
    },
    {
      "hash": "0x7826eac5f82ca917500369d7beb290074efd5533920d4309f174f5b4b8ca87ce",
      "transactionType": "CALL",
      "contractName": null,
      "contractAddress": "0x0ab580a23b09f2b7c6c40e83747dbebdfa271472",
      "function": null,
      "arguments": null,
      "transaction": {
        "from": "0xf39fd6e51aad88f6f4ce6ab8827279cfffb92266",
        "to": "0x0ab580a23b09f2b7c6c40e83747dbebdfa271472",
        "gas": "0x9c20",
        "value": "0x4563918244f40000",
        "input": "0x",
        "nonce": "0x1808",
        "chainId": "0x1"
      },
      "additionalContracts": [],
      "isFixedGasLimit": false
    },
    {
      "hash": "0xafb4b263bd8ca42782855caec08d450367ffee9195e3de7281289af9506571e7",
      "transactionType": "CALL",
      "contractName": null,
      "contractAddress": "0x0ab580a23b09f2b7c6c40e83747dbebdfa271472",
      "function": "execTransaction(address,uint256,bytes,uint8,uint256,uint256,uint256,address,address,bytes)",
      "arguments": [
        "0x0Ab580a23B09F2B7C6C40e83747DBEbDfa271472",
        "0",
        "0xe19a9dd90000000000000000000000005ba7cfeb518fca00f61f61e3ff842d44141e4a84",
        "0",
        "0",
        "0",
        "0",
        "0x0000000000000000000000000000000000000000",
        "0x0000000000000000000000000000000000000000",
        "0xad4ba1f1f66a66dc1d27f2e592537d04987ba4aa0ac236062279487e819babd52f15796aca2df83ef93f7096fd6fd6b5d6db58149690d215c5a687b1c0308ebc1b"
      ],
      "transaction": {
        "from": "0xf39fd6e51aad88f6f4ce6ab8827279cfffb92266",
        "to": "0x0ab580a23b09f2b7c6c40e83747dbebdfa271472",
        "gas": "0x1fb73",
        "value": "0x0",
        "input": "0x6a7612020000000000000000000000000ab580a23b09f2b7c6c40e83747dbebdfa2714720000000000000000000000000000000000000000000000000000000000000000000000000000000000000000000000000000000000000000000000000000014000000000000000000000000000000000000000000000000000000000000000000000000000000000000000000000000000000000000000000000000000000000000000000000000000000000000000000000000000000000000000000000000000000000000000000000000000000000000000000000000000000000000000000000000000000000000000000000000000000000000000000000000000000000000000000000000000000000000000000000000000000000000000000000000000000000000000000000000000000000000000000000000000000000000001a00000000000000000000000000000000000000000000000000000000000000024e19a9dd90000000000000000000000005ba7cfeb518fca00f61f61e3ff842d44141e4a84000000000000000000000000000000000000000000000000000000000000000000000000000000000000000000000000000000000000000000000041ad4ba1f1f66a66dc1d27f2e592537d04987ba4aa0ac236062279487e819babd52f15796aca2df83ef93f7096fd6fd6b5d6db58149690d215c5a687b1c0308ebc1b00000000000000000000000000000000000000000000000000000000000000",
        "nonce": "0x1809",
        "chainId": "0x1"
      },
      "additionalContracts": [],
      "isFixedGasLimit": false
    }
  ],
  "receipts": [
    {
      "status": "0x1",
      "cumulativeGasUsed": "0x3f238",
      "logs": [
        {
          "address": "0x0ab580a23b09f2b7c6c40e83747dbebdfa271472",
          "topics": [
            "0x141df868a6331af528e38c83b7aa03edc19be66e37ae67f9285bf4f8e3c6a1a8",
            "0x000000000000000000000000a6b71e26c5e0845f74c812102ca7114b6a896ab2"
          ],
          "data": "0x000000000000000000000000000000000000000000000000000000000000008000000000000000000000000000000000000000000000000000000000000000010000000000000000000000000000000000000000000000000000000000000000000000000000000000000000f48f2b2d2a534e402487b3ee7c18c33aec0fe5e40000000000000000000000000000000000000000000000000000000000000001000000000000000000000000f39fd6e51aad88f6f4ce6ab8827279cfffb92266",
          "blockHash": "0xe4cd82d90618c41027b1aa3db3f820969266f21ef54d6e623f152594e16eb3b0",
          "blockNumber": "0x17a6fd2",
          "blockTimestamp": "0x69d017c1",
          "transactionHash": "0x4b60c5475d7ed8696ddb0b75b98ccf1814d079b6f442ea58b3d399d16ea3d7b2",
          "transactionIndex": "0x0",
          "logIndex": "0x0",
          "removed": false
        },
        {
          "address": "0xa6b71e26c5e0845f74c812102ca7114b6a896ab2",
          "topics": [
            "0x4f51faf6c4561ff95f067657e43439f0f856d97c04d9ec9070a6199ad418e235"
          ],
          "data": "0x0000000000000000000000000ab580a23b09f2b7c6c40e83747dbebdfa271472000000000000000000000000d9db270c1b5e3bd161e8c8503c55ceabee709552",
          "blockHash": "0xe4cd82d90618c41027b1aa3db3f820969266f21ef54d6e623f152594e16eb3b0",
          "blockNumber": "0x17a6fd2",
          "blockTimestamp": "0x69d017c1",
          "transactionHash": "0x4b60c5475d7ed8696ddb0b75b98ccf1814d079b6f442ea58b3d399d16ea3d7b2",
          "transactionIndex": "0x0",
          "logIndex": "0x1",
          "removed": false
        }
      ],
      "logsBloom": "0x00000000000000000000000000000000000000400000000000000000000000000000000000000000000000000000000000000000000000000000000000000000000010000000000000000000000000000000000000000008400000200000000000040000000000000500000000000000000000000000000000000000000000000000000000000000000000000000000000000000000000000000000000000000000000000000000000000000000000000000000000000000000000200000000000000000000000000000000000001000000040000000000000000000000000000000080000000000000000400000000020000000000000100000000000000000",
      "type": "0x2",
      "transactionHash": "0x4b60c5475d7ed8696ddb0b75b98ccf1814d079b6f442ea58b3d399d16ea3d7b2",
      "transactionIndex": "0x0",
      "blockHash": "0xe4cd82d90618c41027b1aa3db3f820969266f21ef54d6e623f152594e16eb3b0",
      "blockNumber": "0x17a6fd2",
      "gasUsed": "0x3f238",
      "effectiveGasPrice": "0x5b0cdba",
      "blobGasPrice": "0x61fffcb7097545d9959c",
      "from": "0xf39fd6e51aad88f6f4ce6ab8827279cfffb92266",
      "to": "0xa6b71e26c5e0845f74c812102ca7114b6a896ab2",
      "contractAddress": null
    },
    {
      "status": "0x1",
      "cumulativeGasUsed": "0x84274",
      "logs": [],
      "logsBloom": "0x00000000000000000000000000000000000000000000000000000000000000000000000000000000000000000000000000000000000000000000000000000000000000000000000000000000000000000000000000000000000000000000000000000000000000000000000000000000000000000000000000000000000000000000000000000000000000000000000000000000000000000000000000000000000000000000000000000000000000000000000000000000000000000000000000000000000000000000000000000000000000000000000000000000000000000000000000000000000000000000000000000000000000000000000000000000",
      "type": "0x2",
      "transactionHash": "0xd8899b2a908d04453f45ad21c006564a69a7c3e0298798dc7dff669ca02ef5d4",
      "transactionIndex": "0x0",
      "blockHash": "0xcd51a79ab01ec3bcd868290db9ceb3a04e7b56b7afb0a485c84435ad1a3fc19e",
      "blockNumber": "0x17a6fd3",
      "gasUsed": "0x84274",
      "effectiveGasPrice": "0x4fe29f4",
      "blobGasPrice": "0x571c6ec8082463610c95",
      "from": "0xf39fd6e51aad88f6f4ce6ab8827279cfffb92266",
      "to": null,
      "contractAddress": "0x5ba7cfeb518fca00f61f61e3ff842d44141e4a84"
    },
    {
      "status": "0x1",
      "cumulativeGasUsed": "0x8ad35",
      "logs": [
        {
          "address": "0x0ab580a23b09f2b7c6c40e83747dbebdfa271472",
          "topics": [
            "0x3d0ce9bfc3ed7d6862dbb28b2dea94561fe714a1b4d019aa8af39730d1ad7c3d",
            "0x000000000000000000000000f39fd6e51aad88f6f4ce6ab8827279cfffb92266"
          ],
          "data": "0x0000000000000000000000000000000000000000000000004563918244f40000",
          "blockHash": "0xcd51a79ab01ec3bcd868290db9ceb3a04e7b56b7afb0a485c84435ad1a3fc19e",
          "blockNumber": "0x17a6fd3",
          "blockTimestamp": "0x69d017c1",
          "transactionHash": "0x7826eac5f82ca917500369d7beb290074efd5533920d4309f174f5b4b8ca87ce",
          "transactionIndex": "0x1",
          "logIndex": "0x0",
          "removed": false
        }
      ],
      "logsBloom": "0x00000000000000000000000000000000000000000000000000000000000000000000000000000000000000000000000000000000000000000000000000000000000000000000000000000000000000000000000000000000400000000000000000040000000000000000000100000001000000000000000000000000000000000000000000000000000000000000000000000000000000000000000000000000000000000000000000000040000000000000000000000000000000000000000000000000000000200000000000000000000040002000000000000000000000000000000000000000000000800000000000000000000000000000000000000000",
      "type": "0x2",
      "transactionHash": "0x7826eac5f82ca917500369d7beb290074efd5533920d4309f174f5b4b8ca87ce",
      "transactionIndex": "0x1",
      "blockHash": "0xcd51a79ab01ec3bcd868290db9ceb3a04e7b56b7afb0a485c84435ad1a3fc19e",
      "blockNumber": "0x17a6fd3",
      "gasUsed": "0x6ac1",
      "effectiveGasPrice": "0x4fe29f4",
      "blobGasPrice": "0x571c6ec8082463610c95",
      "from": "0xf39fd6e51aad88f6f4ce6ab8827279cfffb92266",
      "to": "0x0ab580a23b09f2b7c6c40e83747dbebdfa271472",
      "contractAddress": null
    },
    {
      "status": "0x1",
      "cumulativeGasUsed": "0xa082f",
      "logs": [
        {
          "address": "0x0ab580a23b09f2b7c6c40e83747dbebdfa271472",
          "topics": [
            "0x1151116914515bc0891ff9047a6cb32cf902546f83066499bcf8ba33d2353fa2"
          ],
          "data": "0x0000000000000000000000005ba7cfeb518fca00f61f61e3ff842d44141e4a84",
          "blockHash": "0xcd51a79ab01ec3bcd868290db9ceb3a04e7b56b7afb0a485c84435ad1a3fc19e",
          "blockNumber": "0x17a6fd3",
          "blockTimestamp": "0x69d017c1",
          "transactionHash": "0xafb4b263bd8ca42782855caec08d450367ffee9195e3de7281289af9506571e7",
          "transactionIndex": "0x2",
          "logIndex": "0x1",
          "removed": false
        },
        {
          "address": "0x0ab580a23b09f2b7c6c40e83747dbebdfa271472",
          "topics": [
            "0x442e715f626346e8c54381002da614f62bee8d27386535b2521ec8540898556e"
          ],
          "data": "0x73ac556d4bfe65c6c277f60a96f7c4e44052b3bcc8d67f26ce7b1202d916f23a0000000000000000000000000000000000000000000000000000000000000000",
          "blockHash": "0xcd51a79ab01ec3bcd868290db9ceb3a04e7b56b7afb0a485c84435ad1a3fc19e",
          "blockNumber": "0x17a6fd3",
          "blockTimestamp": "0x69d017c1",
          "transactionHash": "0xafb4b263bd8ca42782855caec08d450367ffee9195e3de7281289af9506571e7",
          "transactionIndex": "0x2",
          "logIndex": "0x2",
          "removed": false
        }
      ],
      "logsBloom": "0x00000000400000000000000000000000000000000000000000000000040000000000000000000000000000000000000000000000000000000000000000000000000000000020000000000000000000000000000000000000400000000000000000040000000000000000000000000000000000000000000000000000000000000000000000000000000000000000000000000000000000000000000000000000000000000000800000000000000004000000000000000000000000000000000000000000000000000000000000000000000040000000000000000000000000000000000000000000002000000000000000000000000000000000000000000000",
      "type": "0x2",
      "transactionHash": "0xafb4b263bd8ca42782855caec08d450367ffee9195e3de7281289af9506571e7",
      "transactionIndex": "0x2",
      "blockHash": "0xcd51a79ab01ec3bcd868290db9ceb3a04e7b56b7afb0a485c84435ad1a3fc19e",
      "blockNumber": "0x17a6fd3",
      "gasUsed": "0x15afa",
      "effectiveGasPrice": "0x4fe29f4",
      "blobGasPrice": "0x571c6ec8082463610c95",
      "from": "0xf39fd6e51aad88f6f4ce6ab8827279cfffb92266",
      "to": "0x0ab580a23b09f2b7c6c40e83747dbebdfa271472",
      "contractAddress": null
    }
  ],
  "libraries": [],
  "pending": [],
  "returns": {},
  "timestamp": 1775245261,
  "chain": 1,
  "commit": null
}