{
  "transactions": [
    {
      "hash": "0xe9a6fff735b01a7b4c783dc414a242fc0328b8b2b250e3831a5ad6e41f0d6c6d",
      "transactionType": "CALL",
      "contractName": null,
      "contractAddress": "0xa6b71e26c5e0845f74c812102ca7114b6a896ab2",
      "function": "createProxyWithNonce(address,bytes,uint256)",
      "arguments": [
        "0xd9Db270c1B5E3Bd161E8c8503c55cEABeE709552",
        "0xb63e800d0000000000000000000000000000000000000000000000000000000000000100000000000000000000000000000000000000000000000000000000000000000100000000000000000000000000000000000000000000000000000000000000000000000000000000000000000000000000000000000000000000000000000140000000000000000000000000f48f2b2d2a534e402487b3ee7c18c33aec0fe5e40000000000000000000000000000000000000000000000000000000000000000000000000000000000000000000000000000000000000000000000000000000000000000000000000000000000000000000000000000000000000000000000000000000000000000000000000000000000000000000000000000000000000001000000000000000000000000f39fd6e51aad88f6f4ce6ab8827279cfffb922660000000000000000000000000000000000000000000000000000000000000000",
        "1775298323"
      ],
      "transaction": {
        "from": "0xf39fd6e51aad88f6f4ce6ab8827279cfffb92266",
        "to": "0xa6b71e26c5e0845f74c812102ca7114b6a896ab2",
        "gas": "0x5735c",
        "value": "0x0",
        "input": "0x1688f0b9000000000000000000000000d9db270c1b5e3bd161e8c8503c55ceabee70955200000000000000000000000000000000000000000000000000000000000000600000000000000000000000000000000000000000000000000000000069d0e7130000000000000000000000000000000000000000000000000000000000000164b63e800d0000000000000000000000000000000000000000000000000000000000000100000000000000000000000000000000000000000000000000000000000000000100000000000000000000000000000000000000000000000000000000000000000000000000000000000000000000000000000000000000000000000000000140000000000000000000000000f48f2b2d2a534e402487b3ee7c18c33aec0fe5e40000000000000000000000000000000000000000000000000000000000000000000000000000000000000000000000000000000000000000000000000000000000000000000000000000000000000000000000000000000000000000000000000000000000000000000000000000000000000000000000000000000000000001000000000000000000000000f39fd6e51aad88f6f4ce6ab8827279cfffb92266000000000000000000000000000000000000000000000000000000000000000000000000000000000000000000000000000000000000000000000000",
        "nonce": "0x1806",
        "chainId": "0x1"
      },
      "additionalContracts": [
        {
          "transactionType": "CREATE2",
          "address": "0x756796a291ebf234db4194b0e995ef86b5627c64",
          "initCode": "0x608060405234801561001057600080fd5b506040516101e63803806101e68339818101604052602081101561003357600080fd5b8101908080519060200190929190505050600073ffffffffffffffffffffffffffffffffffffffff168173ffffffffffffffffffffffffffffffffffffffff1614156100ca576040517f08c379a00000000000000000000000000000000000000000000000000000000081526004018080602001828103825260228152602001806101c46022913960400191505060405180910390fd5b806000806101000a81548173ffffffffffffffffffffffffffffffffffffffff021916908373ffffffffffffffffffffffffffffffffffffffff1602179055505060ab806101196000396000f3fe608060405273ffffffffffffffffffffffffffffffffffffffff600054167fa619486e0000000000000000000000000000000000000000000000000000000060003514156050578060005260206000f35b3660008037600080366000845af43d6000803e60008114156070573d6000fd5b3d6000f3fea2646970667358221220d1429297349653a4918076d650332de1a1068c5f3e07c5c82360c277770b955264736f6c63430007060033496e76616c69642073696e676c65746f6e20616464726573732070726f7669646564000000000000000000000000d9db270c1b5e3bd161e8c8503c55ceabee709552"
        }
      ],
      "isFixedGasLimit": false
    },
    {
      "hash": "0x8ce865fa145c2332a83ef3e80c6851ed44f8fd85f1ce3d37eec4134be70711b0",
      "transactionType": "CREATE",
      "contractName": "AIGuard",
      "contractAddress": "0x5ba7cfeb518fca00f61f61e3ff842d44141e4a84",
      "function": null,
      "arguments": [
        "0x756796A291eBF234dB4194B0e995ef86B5627C64",
        "0x3C44CdDdB6a900fa2b585dd299e03d12FA4293BC"
      ],
      "transaction": {
        "from": "0xf39fd6e51aad88f6f4ce6ab8827279cfffb92266",
        "gas": "0x99ea6",
        "value": "0x0",
        "input": "0x60a03461009657601f61081f38819003918201601f19168301916001600160401b0383118484101761009b57808492604094855283398101031261009657610052602061004b836100b1565b92016100b1565b608091909152600080546001600160a01b0319166001600160a01b0390921691909117905560405161075990816100c6823960805181818161042501526105380152f35b600080fd5b634e487b7160e01b600052604160045260246000fd5b51906001600160a01b03821682036100965756fe6080604081815260048036101561001557600080fd5b600092833560e01c90816301ffc9a71461045457508063186f0354146104105780633f02d440146103e457806348aefc32146103a05780635071efb3146102635780636683bc6a1461023a57806375f0bb52146101745780638406c0791461014c57806393271368146100d95763bf7c21311461009157600080fd5b346100d55760203660031901126100d557606092829135815260016020522090600182549201549060ff8151938181161515855260081c1615156020840152820152f35b8280fd5b50503461014857806003193601126101485760243580151503610148576003549081610103578280f35b8183526001602052822061010061ff0019825416179055816003557fe7c2dd28dc23dfabe01bd47d8eb95f59a139e8cbecbd6f9c29f21c1921df62118280a238808280f35b5080fd5b505034610148578160031936011261014857905490516001600160a01b039091168152602090f35b83823461014857610160366003190112610148578035906001600160a01b0380831683036102365767ffffffffffffffff90604435828111610226576101bd90369085016104a8565b6064359160ff831683036102325760e43593818516850361022e576101043595828716870361022a576101243591821161022a576101fd913691016104a8565b506101443590811603610226576102239460c4359260a435926084359260243590610526565b80f35b8580fd5b8880fd5b8780fd5b8680fd5b8380fd5b50346100d55760203660031901126100d557816020936001923581528285522001549051908152f35b509190346101485760603660031901126101485782359060243560443580151580910361039c5784546001600160a01b0316330361038c57811561037c57818552600260205260ff838620541661036c578185526002602052828520805460ff1916600117905582516060810167ffffffffffffffff811182821017610359577f18cb53246101ee7893950c776a2df4cd63fd9484f27fa4467b122d8378a5cafb95969750845281815260016020820188815285830190858252888a5282602052868a20935115159060ff61ff0086549251151560081b1692169061ffff1916171783555191015582519182526020820152a280f35b634e487b7160e01b875260418852602487fd5b82516393d1ddc760e01b81528690fd5b825163690ee9a960e01b81528690fd5b825163c64891a560e01b81528690fd5b8480fd5b50346100d55760203660031901126100d55760209282913581526001845220549060ff821691826103d5575b50519015158152f35b60081c60ff16159150386103cc565b50346100d55760203660031901126100d5578160209360ff923581526002855220541690519015158152f35b505034610148578160031936011261014857517f00000000000000000000000000000000000000000000000000000000000000006001600160a01b03168152602090f35b925050346100d55760203660031901126100d5573563ffffffff60e01b81168091036100d5576020925063736bd41d60e11b8114908115610497575b5015158152f35b6301ffc9a760e01b14905038610490565b81601f8201121561050b5780359067ffffffffffffffff928383116105105760405193601f8401601f19908116603f0116850190811185821017610510576040528284526020838301011161050b57816000926020809301838601378301015290565b600080fd5b634e487b7160e01b600052604160045260246000fd5b939692979490959160018060a01b03807f000000000000000000000000000000000000000000000000000000000000000016908616148061065f575b6106545760208151910120966040519860208a01986bffffffffffffffffffffffff199889809860601b168b5260348c015260548b015260ff60f81b9060f81b1660748a01526075890152609588015260b587015260601b1660d585015260601b1660e983015260dd825261010082019180831067ffffffffffffffff841117610510578260405251902090816000526001602052604060002080549160ff8360081c16610645575060010154156106335760ff161561062157600355565b60405163c19f17a960e01b8152600490fd5b60405163690ee9a960e01b8152600490fd5b636f47ab5f60e01b8152600490fd5b505050505050505050565b506106698161066e565b610562565b80516004811061071c57156106c85760208101516001600160f81b031990811660e160f81b149190826106fd575b826106de575b826106ac57505090565b9080925051600310156106c857602360d960f81b920151161490565b634e487b7160e01b600052603260045260246000fd5b91508051600210156106c85760228101518216609d60f81b14916106a2565b91508051600110156106c85760218101518216604d60f91b149161069c565b505060009056fea264697066735822122038d4290ee46160afabf709518e87e73a9cc2e89451f7bd6b6cf526284e94983f64736f6c63430008130033000000000000000000000000756796a291ebf234db4194b0e995ef86b5627c640000000000000000000000003c44cdddb6a900fa2b585dd299e03d12fa4293bc",
        "nonce": "0x1807",
        "chainId": "0x1"
      },
      "additionalContracts": [],
      "isFixedGasLimit": false
    },
    {
      "hash": "0x48baad0f9fe34916f719f7c2184d225f92786f7cecd2d7b2eb1d56bc3c7b272f",
      "transactionType": "CALL",
      "contractName": null,
      "contractAddress": "0x756796a291ebf234db4194b0e995ef86b5627c64",
      "function": null,
      "arguments": null,
      "transaction": {
        "from": "0xf39fd6e51aad88f6f4ce6ab8827279cfffb92266",
        "to": "0x756796a291ebf234db4194b0e995ef86b5627c64",
        "gas": "0x9c20",
        "value": "0x4563918244f40000",
        "input": "0x",
        "nonce": "0x1808",
        "chainId": "0x1"
      },
      "additionalContracts": [],
      "isFixedGasLimit": false
    },
    {
      "hash": "0xf01255e6469a4fef7a3f5534d9001ef2cff4426907bbf893b55850c83a3bd10f",
      "transactionType": "CALL",
      "contractName": null,
      "contractAddress": "0x756796a291ebf234db4194b0e995ef86b5627c64",
      "function": "execTransaction(address,uint256,bytes,uint8,uint256,uint256,uint256,address,address,bytes)",
      "arguments": [
        "0x756796A291eBF234dB4194B0e995ef86B5627C64",
        "0",
        "0xe19a9dd90000000000000000000000005ba7cfeb518fca00f61f61e3ff842d44141e4a84",
        "0",
        "0",
        "0",
        "0",
        "0x0000000000000000000000000000000000000000",
        "0x0000000000000000000000000000000000000000",
        "0xacb614c6c79623c5cd5dff0e88e81949fc862d75996704e678f175527fc50ac83c16fd49bcca70d9cf778d8a4fb7ef26ff9766b288cba667e259f90f663636541b"
      ],
      "transaction": {
        "from": "0xf39fd6e51aad88f6f4ce6ab8827279cfffb92266",
        "to": "0x756796a291ebf234db4194b0e995ef86b5627c64",
        "gas": "0x1fb73",
        "value": "0x0",
        "input": "0x6a761202000000000000000000000000756796a291ebf234db4194b0e995ef86b5627c640000000000000000000000000000000000000000000000000000000000000000000000000000000000000000000000000000000000000000000000000000014000000000000000000000000000000000000000000000000000000000000000000000000000000000000000000000000000000000000000000000000000000000000000000000000000000000000000000000000000000000000000000000000000000000000000000000000000000000000000000000000000000000000000000000000000000000000000000000000000000000000000000000000000000000000000000000000000000000000000000000000000000000000000000000000000000000000000000000000000000000000000000000000000000000000001a00000000000000000000000000000000000000000000000000000000000000024e19a9dd90000000000000000000000005ba7cfeb518fca00f61f61e3ff842d44141e4a84000000000000000000000000000000000000000000000000000000000000000000000000000000000000000000000000000000000000000000000041acb614c6c79623c5cd5dff0e88e81949fc862d75996704e678f175527fc50ac83c16fd49bcca70d9cf778d8a4fb7ef26ff9766b288cba667e259f90f663636541b00000000000000000000000000000000000000000000000000000000000000",
        "nonce": "0x1809",
        "chainId": "0x1"
      },
      "additionalContracts": [],
      "isFixedGasLimit": false
    }
  ],
  "receipts": [
    {
      "status": "0x1",
      "cumulativeGasUsed": "0x3f238",
      "logs": [
        {
          "address": "0x756796a291ebf234db4194b0e995ef86b5627c64",
          "topics": [
            "0x141df868a6331af528e38c83b7aa03edc19be66e37ae67f9285bf4f8e3c6a1a8",
            "0x000000000000000000000000a6b71e26c5e0845f74c812102ca7114b6a896ab2"
          ],
          "data": "0x000000000000000000000000000000000000000000000000000000000000008000000000000000000000000000000000000000000000000000000000000000010000000000000000000000000000000000000000000000000000000000000000000000000000000000000000f48f2b2d2a534e402487b3ee7c18c33aec0fe5e40000000000000000000000000000000000000000000000000000000000000001000000000000000000000000f39fd6e51aad88f6f4ce6ab8827279cfffb92266",
          "blockHash": "0xa20b414d2e7a6228b890ec364bc3e681a280bc0cfd9fbd32cc850aee454a9a94",
          "blockNumber": "0x17a8126",
          "blockTimestamp": "0x69d0e740",
          "transactionHash": "0xe9a6fff735b01a7b4c783dc414a242fc0328b8b2b250e3831a5ad6e41f0d6c6d",
          "transactionIndex": "0x0",
          "logIndex": "0x0",
          "removed": false
        },
        {
          "address": "0xa6b71e26c5e0845f74c812102ca7114b6a896ab2",
          "topics": [
            "0x4f51faf6c4561ff95f067657e43439f0f856d97c04d9ec9070a6199ad418e235"
          ],
          "data": "0x000000000000000000000000756796a291ebf234db4194b0e995ef86b5627c64000000000000000000000000d9db270c1b5e3bd161e8c8503c55ceabee709552",
          "blockHash": "0xa20b414d2e7a6228b890ec364bc3e681a280bc0cfd9fbd32cc850aee454a9a94",
          "blockNumber": "0x17a8126",
          "blockTimestamp": "0x69d0e740",
          "transactionHash": "0xe9a6fff735b01a7b4c783dc414a242fc0328b8b2b250e3831a5ad6e41f0d6c6d",
          "transactionIndex": "0x0",
          "logIndex": "0x1",
          "removed": false
        }
      ],
      "logsBloom": "0x00000000000000000000000000000000000000400000000000000000000000000000000000000000000000000000000000000000000000000000000000000000000010000000000000000000000000000000000000000008000000200000000000000000000000000500000000000000000000000000000000000000010000000000000000000200000000000000000000000000000000000000000000000000000000000000000000000000000000000800000000000000000000200000000000000000000000000000000000001000000000000000000000000000000000000000080000000000000000400000000020000000000000100000000000000000",
      "type": "0x2",
      "transactionHash": "0xe9a6fff735b01a7b4c783dc414a242fc0328b8b2b250e3831a5ad6e41f0d6c6d",
      "transactionIndex": "0x0",
      "blockHash": "0xa20b414d2e7a6228b890ec364bc3e681a280bc0cfd9fbd32cc850aee454a9a94",
      "blockNumber": "0x17a8126",
      "gasUsed": "0x3f238",
      "effectiveGasPrice": "0x6c8da25",
      "blobGasPrice": "0x3d294bdf5fb510e1e35f",
      "from": "0xf39fd6e51aad88f6f4ce6ab8827279cfffb92266",
      "to": "0xa6b71e26c5e0845f74c812102ca7114b6a896ab2",
      "contractAddress": null
    },
    {
      "status": "0x1",
      "cumulativeGasUsed": "0x76659",
      "logs": [],
      "logsBloom": "0x00000000000000000000000000000000000000000000000000000000000000000000000000000000000000000000000000000000000000000000000000000000000000000000000000000000000000000000000000000000000000000000000000000000000000000000000000000000000000000000000000000000000000000000000000000000000000000000000000000000000000000000000000000000000000000000000000000000000000000000000000000000000000000000000000000000000000000000000000000000000000000000000000000000000000000000000000000000000000000000000000000000000000000000000000000000",
      "type": "0x2",
      "transactionHash": "0x8ce865fa145c2332a83ef3e80c6851ed44f8fd85f1ce3d37eec4134be70711b0",
      "transactionIndex": "0x0",
      "blockHash": "0x242dfcf47037194ba9f062ff902e76055ffad9797914613dc6b86817e414f345",
      "blockNumber": "0x17a8127",
      "gasUsed": "0x76659",
      "effectiveGasPrice": "0x5f1cf3e",
      "blobGasPrice": "0x365d98ba411161b42966",
      "from": "0xf39fd6e51aad88f6f4ce6ab8827279cfffb92266",
      "to": null,
      "contractAddress": "0x5ba7cfeb518fca00f61f61e3ff842d44141e4a84"
    },
    {
      "status": "0x1",
      "cumulativeGasUsed": "0x7d11a",
      "logs": [
        {
          "address": "0x756796a291ebf234db4194b0e995ef86b5627c64",
          "topics": [
            "0x3d0ce9bfc3ed7d6862dbb28b2dea94561fe714a1b4d019aa8af39730d1ad7c3d",
            "0x000000000000000000000000f39fd6e51aad88f6f4ce6ab8827279cfffb92266"
          ],
          "data": "0x0000000000000000000000000000000000000000000000004563918244f40000",
          "blockHash": "0x242dfcf47037194ba9f062ff902e76055ffad9797914613dc6b86817e414f345",
          "blockNumber": "0x17a8127",
          "blockTimestamp": "0x69d0e740",
          "transactionHash": "0x48baad0f9fe34916f719f7c2184d225f92786f7cecd2d7b2eb1d56bc3c7b272f",
          "transactionIndex": "0x1",
          "logIndex": "0x0",
          "removed": false
        }
      ],
      "logsBloom": "0x00000000000000000000000000000000000000000000000000000000000000000000000000000000000000000000000000000000000000000000000000000000000000000000000000000000000000000000000000000000000000000000000000000000000000000000000100000001000000000000000000000000010000000000000000000200000000000000000000000000000000000000000000000000000000000000000000000040000000000800000000000000000000000000000000000000000000200000000000000000000000002000000000000000000000000000000000000000000000800000000000000000000000000000000000000000",
      "type": "0x2",
      "transactionHash": "0x48baad0f9fe34916f719f7c2184d225f92786f7cecd2d7b2eb1d56bc3c7b272f",
      "transactionIndex": "0x1",
      "blockHash": "0x242dfcf47037194ba9f062ff902e76055ffad9797914613dc6b86817e414f345",
      "blockNumber": "0x17a8127",
      "gasUsed": "0x6ac1",
      "effectiveGasPrice": "0x5f1cf3e",
      "blobGasPrice": "0x365d98ba411161b42966",
      "from": "0xf39fd6e51aad88f6f4ce6ab8827279cfffb92266",
      "to": "0x756796a291ebf234db4194b0e995ef86b5627c64",
      "contractAddress": null
    },
    {
      "status": "0x1",
      "cumulativeGasUsed": "0x92c14",
      "logs": [
        {
          "address": "0x756796a291ebf234db4194b0e995ef86b5627c64",
          "topics": [
            "0x1151116914515bc0891ff9047a6cb32cf902546f83066499bcf8ba33d2353fa2"
          ],
          "data": "0x0000000000000000000000005ba7cfeb518fca00f61f61e3ff842d44141e4a84",
          "blockHash": "0x242dfcf47037194ba9f062ff902e76055ffad9797914613dc6b86817e414f345",
          "blockNumber": "0x17a8127",
          "blockTimestamp": "0x69d0e740",
          "transactionHash": "0xf01255e6469a4fef7a3f5534d9001ef2cff4426907bbf893b55850c83a3bd10f",
          "transactionIndex": "0x2",
          "logIndex": "0x1",
          "removed": false
        },
        {
          "address": "0x756796a291ebf234db4194b0e995ef86b5627c64",
          "topics": [
            "0x442e715f626346e8c54381002da614f62bee8d27386535b2521ec8540898556e"
          ],
          "data": "0x3e306550be63e14a3ab881b7e3e3a885b3b2e6fb511811ae06d73d873c7ed8b20000000000000000000000000000000000000000000000000000000000000000",
          "blockHash": "0x242dfcf47037194ba9f062ff902e76055ffad9797914613dc6b86817e414f345",
          "blockNumber": "0x17a8127",
          "blockTimestamp": "0x69d0e740",
          "transactionHash": "0xf01255e6469a4fef7a3f5534d9001ef2cff4426907bbf893b55850c83a3bd10f",
          "transactionIndex": "0x2",
          "logIndex": "0x2",
          "removed": false
        }
      ],
      "logsBloom": "0x00000000400000000000000000000000000000000000000000000000040000000000000000000000000000000000000000000000000000000000000000000000000000000020000000000000000000000000000000000000000000000000000000000000000000000000000000000000000000000000000000000000010000000000000000000200000000000000000000000000000000000000000000000000000000000000800000000000000004000800000000000000000000000000000000000000000000000000000000000000000000000000000000000000000000000000000000000000002000000000000000000000000000000000000000000000",
      "type": "0x2",
      "transactionHash": "0xf01255e6469a4fef7a3f5534d9001ef2cff4426907bbf893b55850c83a3bd10f",
      "transactionIndex": "0x2",
      "blockHash": "0x242dfcf47037194ba9f062ff902e76055ffad9797914613dc6b86817e414f345",
      "blockNumber": "0x17a8127",
      "gasUsed": "0x15afa",
      "effectiveGasPrice": "0x5f1cf3e",
      "blobGasPrice": "0x365d98ba411161b42966",
      "from": "0xf39fd6e51aad88f6f4ce6ab8827279cfffb92266",
      "to": "0x756796a291ebf234db4194b0e995ef86b5627c64",
      "contractAddress": null
    }
  ],
  "libraries": [],
  "pending": [],
  "returns": {},
  "timestamp": 1775298379,
  "chain": 1,
  "commit": "036a4a8"
}