{
  "transactions": [
    {
      "hash": "0x945309d3846499fe0f2289164fa6f293e03e11bd408d6833a8f5fdd275145efc",
      "transactionType": "CALL",
      "contractName": null,
      "contractAddress": "0xa6b71e26c5e0845f74c812102ca7114b6a896ab2",
      "function": "createProxyWithNonce(address,bytes,uint256)",
      "arguments": [
        "0xd9Db270c1B5E3Bd161E8c8503c55cEABeE709552",
        "0xb63e800d0000000000000000000000000000000000000000000000000000000000000100000000000000000000000000000000000000000000000000000000000000000100000000000000000000000000000000000000000000000000000000000000000000000000000000000000000000000000000000000000000000000000000140000000000000000000000000f48f2b2d2a534e402487b3ee7c18c33aec0fe5e40000000000000000000000000000000000000000000000000000000000000000000000000000000000000000000000000000000000000000000000000000000000000000000000000000000000000000000000000000000000000000000000000000000000000000000000000000000000000000000000000000000000000001000000000000000000000000f39fd6e51aad88f6f4ce6ab8827279cfffb922660000000000000000000000000000000000000000000000000000000000000000",
        "1775249231"
      ],
      "transaction": {
        "from": "0xf39fd6e51aad88f6f4ce6ab8827279cfffb92266",
        "to": "0xa6b71e26c5e0845f74c812102ca7114b6a896ab2",
        "gas": "0x5735c",
        "value": "0x0",
        "input": "0x1688f0b9000000000000000000000000d9db270c1b5e3bd161e8c8503c55ceabee70955200000000000000000000000000000000000000000000000000000000000000600000000000000000000000000000000000000000000000000000000069d0274f0000000000000000000000000000000000000000000000000000000000000164b63e800d0000000000000000000000000000000000000000000000000000000000000100000000000000000000000000000000000000000000000000000000000000000100000000000000000000000000000000000000000000000000000000000000000000000000000000000000000000000000000000000000000000000000000140000000000000000000000000f48f2b2d2a534e402487b3ee7c18c33aec0fe5e40000000000000000000000000000000000000000000000000000000000000000000000000000000000000000000000000000000000000000000000000000000000000000000000000000000000000000000000000000000000000000000000000000000000000000000000000000000000000000000000000000000000000001000000000000000000000000f39fd6e51aad88f6f4ce6ab8827279cfffb92266000000000000000000000000000000000000000000000000000000000000000000000000000000000000000000000000000000000000000000000000",
        "nonce": "0x1806",
        "chainId": "0x1"
      },
      "additionalContracts": [
        {
          "transactionType": "CREATE2",
          "address": "0xb1336dd0b16ae3e34ed559d3576de7567c93ca70",
          "initCode": "0x608060405234801561001057600080fd5b506040516101e63803806101e68339818101604052602081101561003357600080fd5b8101908080519060200190929190505050600073ffffffffffffffffffffffffffffffffffffffff168173ffffffffffffffffffffffffffffffffffffffff1614156100ca576040517f08c379a00000000000000000000000000000000000000000000000000000000081526004018080602001828103825260228152602001806101c46022913960400191505060405180910390fd5b806000806101000a81548173ffffffffffffffffffffffffffffffffffffffff021916908373ffffffffffffffffffffffffffffffffffffffff1602179055505060ab806101196000396000f3fe608060405273ffffffffffffffffffffffffffffffffffffffff600054167fa619486e0000000000000000000000000000000000000000000000000000000060003514156050578060005260206000f35b3660008037600080366000845af43d6000803e60008114156070573d6000fd5b3d6000f3fea2646970667358221220d1429297349653a4918076d650332de1a1068c5f3e07c5c82360c277770b955264736f6c63430007060033496e76616c69642073696e676c65746f6e20616464726573732070726f7669646564000000000000000000000000d9db270c1b5e3bd161e8c8503c55ceabee709552"
        }
      ],
      "isFixedGasLimit": false
    },
    {
      "hash": "0x7a89f62574ebe7d5419347a0746604a94a190986990610ad4be2d8b834d5efa2",
      "transactionType": "CREATE",
      "contractName": "AIGuard",
      "contractAddress": "0x5ba7cfeb518fca00f61f61e3ff842d44141e4a84",
      "function": null,
      "arguments": [
        "0xb1336dd0B16aE3E34Ed559D3576De7567C93ca70",
        "0x3C44CdDdB6a900fa2b585dd299e03d12FA4293BC"
      ],
      "transaction": {
        "from": "0xf39fd6e51aad88f6f4ce6ab8827279cfffb92266",
        "gas": "0x96a05",
        "value": "0x0",
        "input": "0x60a03461009657601f6107ef38819003918201601f19168301916001600160401b0383118484101761009b57808492604094855283398101031261009657610052602061004b836100b1565b92016100b1565b608091909152600080546001600160a01b0319166001600160a01b0390921691909117905560405161072990816100c682396080518181816103fa015261050d0152f35b600080fd5b634e487b7160e01b600052604160045260246000fd5b51906001600160a01b03821682036100965756fe6080604081815260048036101561001557600080fd5b600092833560e01c90816301ffc9a71461042957508063186f0354146103e55780633f02d440146103b957806348aefc32146103755780635071efb3146102385780636683bc6a1461020f57806375f0bb52146101495780638406c0791461012157806393271368146100d95763bf7c21311461009157600080fd5b346100d55760203660031901126100d557606092829135815260016020522090600182549201549060ff8151938181161515855260081c1615156020840152820152f35b8280fd5b5090346100d55736600319011261011d576024358015150361011d57357fe7c2dd28dc23dfabe01bd47d8eb95f59a139e8cbecbd6f9c29f21c1921df62118280a280f35b5080fd5b50503461011d578160031936011261011d57905490516001600160a01b039091168152602090f35b83823461011d5761016036600319011261011d578035906001600160a01b03808316830361020b5767ffffffffffffffff906044358281116101fb57610192903690850161047d565b6064359160ff831683036102075760e43593818516850361020357610104359582871687036101ff57610124359182116101ff576101d29136910161047d565b5061014435908116036101fb576101f89460c4359260a4359260843592602435906104fb565b80f35b8580fd5b8880fd5b8780fd5b8680fd5b8380fd5b50346100d55760203660031901126100d557816020936001923581528285522001549051908152f35b5091903461011d57606036600319011261011d578235906024356044358015158091036103715784546001600160a01b0316330361036157811561035157818552600260205260ff8386205416610341578185526002602052828520805460ff1916600117905582516060810167ffffffffffffffff81118282101761032e577f18cb53246101ee7893950c776a2df4cd63fd9484f27fa4467b122d8378a5cafb95969750845281815260016020820188815285830190858252888a5282602052868a20935115159060ff61ff0086549251151560081b1692169061ffff1916171783555191015582519182526020820152a280f35b634e487b7160e01b875260418852602487fd5b82516393d1ddc760e01b81528690fd5b825163690ee9a960e01b81528690fd5b825163c64891a560e01b81528690fd5b8480fd5b50346100d55760203660031901126100d55760209282913581526001845220549060ff821691826103aa575b50519015158152f35b60081c60ff16159150386103a1565b50346100d55760203660031901126100d5578160209360ff923581526002855220541690519015158152f35b50503461011d578160031936011261011d57517f00000000000000000000000000000000000000000000000000000000000000006001600160a01b03168152602090f35b925050346100d55760203660031901126100d5573563ffffffff60e01b81168091036100d5576020925063736bd41d60e11b811490811561046c575b5015158152f35b6301ffc9a760e01b14905038610465565b81601f820112156104e05780359067ffffffffffffffff928383116104e55760405193601f8401601f19908116603f01168501908111858210176104e557604052828452602083830101116104e057816000926020809301838601378301015290565b600080fd5b634e487b7160e01b600052604160045260246000fd5b939692979490959160018060a01b03807f000000000000000000000000000000000000000000000000000000000000000016908616148061062f575b6106245760208151910120966040519860208a01986bffffffffffffffffffffffff199889809860601b168b5260348c015260548b015260ff60f81b9060f81b1660748a01526075890152609588015260b587015260601b1660d585015260601b1660e983015260dd825261010082019180831067ffffffffffffffff8411176104e557826040525190206000526001602052604060002080549160ff8360081c16610615575060010154156106035760ff16156105f157565b60405163c19f17a960e01b8152600490fd5b60405163690ee9a960e01b8152600490fd5b636f47ab5f60e01b8152600490fd5b505050505050505050565b506106398161063e565b610537565b8051600481106106ec57156106985760208101516001600160f81b031990811660e160f81b149190826106cd575b826106ae575b8261067c57505090565b90809250516003101561069857602360d960f81b920151161490565b634e487b7160e01b600052603260045260246000fd5b91508051600210156106985760228101518216609d60f81b1491610672565b91508051600110156106985760218101518216604d60f91b149161066c565b505060009056fea264697066735822122020501c9e572344a1c070294c4a5961587bb947e7e60ba7c12007dfc069b0ada464736f6c63430008130033000000000000000000000000b1336dd0b16ae3e34ed559d3576de7567c93ca700000000000000000000000003c44cdddb6a900fa2b585dd299e03d12fa4293bc",
        "nonce": "0x1807",
        "chainId": "0x1"
      },
      "additionalContracts": [],
      "isFixedGasLimit": false
    },
    {
      "hash": "0xb707f706953d8316c85ea9770ba41d319b477e917ea691c66b73e4832ff64eaa",
      "transactionType": "CALL",
      "contractName": null,
      "contractAddress": "0xb1336dd0b16ae3e34ed559d3576de7567c93ca70",
      "function": null,
      "arguments": null,
      "transaction": {
        "from": "0xf39fd6e51aad88f6f4ce6ab8827279cfffb92266",
        "to": "0xb1336dd0b16ae3e34ed559d3576de7567c93ca70",
        "gas": "0x9c20",
        "value": "0x4563918244f40000",
        "input": "0x",
        "nonce": "0x1808",
        "chainId": "0x1"
      },
      "additionalContracts": [],
      "isFixedGasLimit": false
    },
    {
      "hash": "0x4f5f549274cf46c01d6ef4c2b9f0166c0ef66597195cf80a1667d0b765e6e4f7",
      "transactionType": "CALL",
      "contractName": null,
      "contractAddress": "0xb1336dd0b16ae3e34ed559d3576de7567c93ca70",
      "function": "execTransaction(address,uint256,bytes,uint8,uint256,uint256,uint256,address,address,bytes)",
      "arguments": [
        "0xb1336dd0B16aE3E34Ed559D3576De7567C93ca70",
        "0",
        "0xe19a9dd90000000000000000000000005ba7cfeb518fca00f61f61e3ff842d44141e4a84",
        "0",
        "0",
        "0",
        "0",
        "0x0000000000000000000000000000000000000000",
        "0x0000000000000000000000000000000000000000",
        "0x0f43c359ebeeadd5dd37f54e25adc22e8633fa454c33e71252a334d08d0412b52c0ca9ca1a94993c1a12fea594291d3deac8e085cb458397d7b20212b6e17d401c"
      ],
      "transaction": {
        "from": "0xf39fd6e51aad88f6f4ce6ab8827279cfffb92266",
        "to": "0xb1336dd0b16ae3e34ed559d3576de7567c93ca70",
        "gas": "0x1fb73",
        "value": "0x0",
        "input": "0x6a761202000000000000000000000000b1336dd0b16ae3e34ed559d3576de7567c93ca700000000000000000000000000000000000000000000000000000000000000000000000000000000000000000000000000000000000000000000000000000014000000000000000000000000000000000000000000000000000000000000000000000000000000000000000000000000000000000000000000000000000000000000000000000000000000000000000000000000000000000000000000000000000000000000000000000000000000000000000000000000000000000000000000000000000000000000000000000000000000000000000000000000000000000000000000000000000000000000000000000000000000000000000000000000000000000000000000000000000000000000000000000000000000000000001a00000000000000000000000000000000000000000000000000000000000000024e19a9dd90000000000000000000000005ba7cfeb518fca00f61f61e3ff842d44141e4a840000000000000000000000000000000000000000000000000000000000000000000000000000000000000000000000000000000000000000000000410f43c359ebeeadd5dd37f54e25adc22e8633fa454c33e71252a334d08d0412b52c0ca9ca1a94993c1a12fea594291d3deac8e085cb458397d7b20212b6e17d401c00000000000000000000000000000000000000000000000000000000000000",
        "nonce": "0x1809",
        "chainId": "0x1"
      },
      "additionalContracts": [],
      "isFixedGasLimit": false
    }
  ],
  "receipts": [
    {
      "status": "0x1",
      "cumulativeGasUsed": "0x3f238",
      "logs": [
        {
          "address": "0xb1336dd0b16ae3e34ed559d3576de7567c93ca70",
          "topics": [
            "0x141df868a6331af528e38c83b7aa03edc19be66e37ae67f9285bf4f8e3c6a1a8",
            "0x000000000000000000000000a6b71e26c5e0845f74c812102ca7114b6a896ab2"
          ],
          "data": "0x000000000000000000000000000000000000000000000000000000000000008000000000000000000000000000000000000000000000000000000000000000010000000000000000000000000000000000000000000000000000000000000000000000000000000000000000f48f2b2d2a534e402487b3ee7c18c33aec0fe5e40000000000000000000000000000000000000000000000000000000000000001000000000000000000000000f39fd6e51aad88f6f4ce6ab8827279cfffb92266",
          "blockHash": "0xb3331dd6b5235c1d88edc00acf0382aaf54082b76785a8612a05dcd800d23f07",
          "blockNumber": "0x17a7136",
          "blockTimestamp": "0x69d02756",
          "transactionHash": "0x945309d3846499fe0f2289164fa6f293e03e11bd408d6833a8f5fdd275145efc",
          "transactionIndex": "0x0",
          "logIndex": "0x0",
          "removed": false
        },
        {
          "address": "0xa6b71e26c5e0845f74c812102ca7114b6a896ab2",
          "topics": [
            "0x4f51faf6c4561ff95f067657e43439f0f856d97c04d9ec9070a6199ad418e235"
          ],
          "data": "0x000000000000000000000000b1336dd0b16ae3e34ed559d3576de7567c93ca70000000000000000000000000d9db270c1b5e3bd161e8c8503c55ceabee709552",
          "blockHash": "0xb3331dd6b5235c1d88edc00acf0382aaf54082b76785a8612a05dcd800d23f07",
          "blockNumber": "0x17a7136",
          "blockTimestamp": "0x69d02756",
          "transactionHash": "0x945309d3846499fe0f2289164fa6f293e03e11bd408d6833a8f5fdd275145efc",
          "transactionIndex": "0x0",
          "logIndex": "0x1",
          "removed": false
        }
      ],
      "logsBloom": "0x00000000000000000000000000000000000000400000000000000000000000000000000000000000000000000020000000000000000000000000000000000000000010000000000000000000000000000000000000000008000000200000000000000000000000000500000000000000000000000000000000000000000000000000000000000000000000000000000000000000000000000000000000000000000000000000000000000000000000100000000000000000000000200000000000000000000000000000000000001000000000000000000000000000000000000000080010000000000000400000000020000000000000100000000000000000",
      "type": "0x2",
      "transactionHash": "0x945309d3846499fe0f2289164fa6f293e03e11bd408d6833a8f5fdd275145efc",
      "transactionIndex": "0x0",
      "blockHash": "0xb3331dd6b5235c1d88edc00acf0382aaf54082b76785a8612a05dcd800d23f07",
      "blockNumber": "0x17a7136",
      "gasUsed": "0x3f238",
      "effectiveGasPrice": "0x664ec68",
      "blobGasPrice": "0x5841a3205b170b30926c",
      "from": "0xf39fd6e51aad88f6f4ce6ab8827279cfffb92266",
      "to": "0xa6b71e26c5e0845f74c812102ca7114b6a896ab2",
      "contractAddress": null
    },
    {
      "status": "0x1",
      "cumulativeGasUsed": "0x73ddd",
      "logs": [],
      "logsBloom": "0x00000000000000000000000000000000000000000000000000000000000000000000000000000000000000000000000000000000000000000000000000000000000000000000000000000000000000000000000000000000000000000000000000000000000000000000000000000000000000000000000000000000000000000000000000000000000000000000000000000000000000000000000000000000000000000000000000000000000000000000000000000000000000000000000000000000000000000000000000000000000000000000000000000000000000000000000000000000000000000000000000000000000000000000000000000000",
      "type": "0x2",
      "transactionHash": "0x7a89f62574ebe7d5419347a0746604a94a190986990610ad4be2d8b834d5efa2",
      "transactionIndex": "0x0",
      "blockHash": "0xa4fa5351ef35c3ef7c7d77b88cd933ecc500638f96da498bce1189acb09d25c0",
      "blockNumber": "0x17a7137",
      "gasUsed": "0x73ddd",
      "effectiveGasPrice": "0x59a562f",
      "blobGasPrice": "0x4e733b996aee327d1f5d",
      "from": "0xf39fd6e51aad88f6f4ce6ab8827279cfffb92266",
      "to": null,
      "contractAddress": "0x5ba7cfeb518fca00f61f61e3ff842d44141e4a84"
    },
    {
      "status": "0x1",
      "cumulativeGasUsed": "0x7a89e",
      "logs": [
        {
          "address": "0xb1336dd0b16ae3e34ed559d3576de7567c93ca70",
          "topics": [
            "0x3d0ce9bfc3ed7d6862dbb28b2dea94561fe714a1b4d019aa8af39730d1ad7c3d",
            "0x000000000000000000000000f39fd6e51aad88f6f4ce6ab8827279cfffb92266"
          ],
          "data": "0x0000000000000000000000000000000000000000000000004563918244f40000",
          "blockHash": "0xa4fa5351ef35c3ef7c7d77b88cd933ecc500638f96da498bce1189acb09d25c0",
          "blockNumber": "0x17a7137",
          "blockTimestamp": "0x69d02756",
          "transactionHash": "0xb707f706953d8316c85ea9770ba41d319b477e917ea691c66b73e4832ff64eaa",
          "transactionIndex": "0x1",
          "logIndex": "0x0",
          "removed": false
        }
      ],
      "logsBloom": "0x00000000000000000000000000000000000000000000000000000000000000000000000000000000000000000020000000000000000000000000000000000000000000000000000000000000000000000000000000000000000000000000000000000000000000000000000100000001000000000000000000000000000000000000000000000000000000000000000000000000000000000000000000000000000000000000000000000040000000100000000000000000000000000000000000000000000000200000000000000000000000002000000000000000000000000000000010000000000000800000000000000000000000000000000000000000",
      "type": "0x2",
      "transactionHash": "0xb707f706953d8316c85ea9770ba41d319b477e917ea691c66b73e4832ff64eaa",
      "transactionIndex": "0x1",
      "blockHash": "0xa4fa5351ef35c3ef7c7d77b88cd933ecc500638f96da498bce1189acb09d25c0",
      "blockNumber": "0x17a7137",
      "gasUsed": "0x6ac1",
      "effectiveGasPrice": "0x59a562f",
      "blobGasPrice": "0x4e733b996aee327d1f5d",
      "from": "0xf39fd6e51aad88f6f4ce6ab8827279cfffb92266",
      "to": "0xb1336dd0b16ae3e34ed559d3576de7567c93ca70",
      "contractAddress": null
    },
    {
      "status": "0x1",
      "cumulativeGasUsed": "0x90398",
      "logs": [
        {
          "address": "0xb1336dd0b16ae3e34ed559d3576de7567c93ca70",
          "topics": [
            "0x1151116914515bc0891ff9047a6cb32cf902546f83066499bcf8ba33d2353fa2"
          ],
          "data": "0x0000000000000000000000005ba7cfeb518fca00f61f61e3ff842d44141e4a84",
          "blockHash": "0xa4fa5351ef35c3ef7c7d77b88cd933ecc500638f96da498bce1189acb09d25c0",
          "blockNumber": "0x17a7137",
          "blockTimestamp": "0x69d02756",
          "transactionHash": "0x4f5f549274cf46c01d6ef4c2b9f0166c0ef66597195cf80a1667d0b765e6e4f7",
          "transactionIndex": "0x2",
          "logIndex": "0x1",
          "removed": false
        },
        {
          "address": "0xb1336dd0b16ae3e34ed559d3576de7567c93ca70",
          "topics": [
            "0x442e715f626346e8c54381002da614f62bee8d27386535b2521ec8540898556e"
          ],
          "data": "0x6849bc90cf9298e8b8c68cd7ca7ec0e9732ebb8f07bc9eb138d89647bfc67a050000000000000000000000000000000000000000000000000000000000000000",
          "blockHash": "0xa4fa5351ef35c3ef7c7d77b88cd933ecc500638f96da498bce1189acb09d25c0",
          "blockNumber": "0x17a7137",
          "blockTimestamp": "0x69d02756",
          "transactionHash": "0x4f5f549274cf46c01d6ef4c2b9f0166c0ef66597195cf80a1667d0b765e6e4f7",
          "transactionIndex": "0x2",
          "logIndex": "0x2",
          "removed": false
        }
      ],
      "logsBloom": "0x00000000400000000000000000000000000000000000000000000000040000000000000000000000000000000020000000000000000000000000000000000000000000000020000000000000000000000000000000000000000000000000000000000000000000000000000000000000000000000000000000000000000000000000000000000000000000000000000000000000000000000000000000000000000000000000800000000000000004100000000000000000000000000000000000000000000000000000000000000000000000000000000000000000000000000000000010000000002000000000000000000000000000000000000000000000",
      "type": "0x2",
      "transactionHash": "0x4f5f549274cf46c01d6ef4c2b9f0166c0ef66597195cf80a1667d0b765e6e4f7",
      "transactionIndex": "0x2",
      "blockHash": "0xa4fa5351ef35c3ef7c7d77b88cd933ecc500638f96da498bce1189acb09d25c0",
      "blockNumber": "0x17a7137",
      "gasUsed": "0x15afa",
      "effectiveGasPrice": "0x59a562f",
      "blobGasPrice": "0x4e733b996aee327d1f5d",
      "from": "0xf39fd6e51aad88f6f4ce6ab8827279cfffb92266",
      "to": "0xb1336dd0b16ae3e34ed559d3576de7567c93ca70",
      "contractAddress": null
    }
  ],
  "libraries": [],
  "pending": [],
  "returns": {},
  "timestamp": 1775249244,
  "chain": 1,
  "commit": null
}